:100000000C9403010C942F010C942F010C942F01DC
:100010000C942F010C942F010C942F010C942F01A0
:100020000C942F010C942F010C942F010C942F0190
:100030000C942F010C942F010C942F010C942F0180
:100040000C942F010C942F010C942F010C942F0170
:100050000C942F010C942F010C942F010C948D0102
:100060000C942F010C941D030C94FD030C942F0190
:100070000C942F010C942F010C942F010C942F0140
:100080000C942F010C942F010C942F010C942F0130
:100090000C9455030C943C040C942F010C942F01E8
:1000A0000C942F010C942F010C942F010C942F0110
:1000B0000C942F010C942F010C942F010C942F0100
:1000C0000C942F010C942F010C942F010C948D0390
:1000D0000C947B040C942F010C94C5030C94BA046B
:1000E0000C942F0100002100240027002A002D007D
:1000F0003000330001010000040107010A01000083
:100100002200250028002B002E00310034000201BF
:100110000000050108010B0100002000230026005B
:1001200029002C002F00320000010000030106010D
:10013000090105050505070508080808020202026D
:100140000A0A080804040404010101010101010173
:100150000303030303030303040707070C0C0C0C3E
:100160000C0C0C0C02020202060606060606060627
:100170000B0B0B0B0B0B0B0B0102102020080810B4
:100180002040102040800201020108040201010207
:1001900004081020408080402010080402018004E0
:1001A000020180402010080402010804020101023B
:1001B0000408102040800102040810204080000044
:1001C000090A02080B0C0D070603040100000000D9
:1001D000000000000000000000000000000000001F
:1001E0000000000000000000000011100F000000DF
:1001F00000000000000000000000000000000000FF
:1002000000000000240611241FBECFEFD1E2DEBFA4
:10021000CDBF00E00CBF12E0A0E0B2E0E0EDFFE0F7
:1002200000E00BBF02C007900D92A432B107D9F7CE
:1002300014E0A4E2B2E001C01D92A93CB107E1F7CD
:1002400012E0C6E0D2E004C02297FE010E94E2075D
:10025000C430D107C9F70E9470010C94BB070C94FD
:100260000000EF92FF921F93CF93DF93C0E0D0E0A6
:100270001AE0E82EFF24C7010C2E02C09595879541
:100280000A94E2F780FF03C0812F61E002C0812F52
:1002900060E00E94EA0221961150123061F7DF916E
:1002A000CF911F91FF90EF9008951F930E94D50169
:1002B0008DE494E040E052EC61E070E00E94F904CB
:1002C00013E0812F61E00E9437021F5F1B30C9F7E6
:1002D0008DE494E060E072E00E94A8071F91089509
:1002E0001F930E9455018DE494E060E072E00E944B
:1002F000A8078DE494E00E947F05892BD1F38DE45B
:1003000094E00E94B005182F8DE494E0612F0E94C4
:100310006C07812F0E943101ECCF1F920F920FB614
:100320000F9211242F933F938F939F93AF93BF937B
:100330008091280290912902A0912A02B0912B026B
:1003400030912C020196A11DB11D232F2D5F2D3759
:1003500020F02D570196A11DB11D20932C028093F2
:10036000280290932902A0932A02B0932B02809135
:10037000240290912502A0912602B09127020196B5
:10038000A11DB11D8093240290932502A093260203
:10039000B0932702BF91AF919F918F913F912F9181
:1003A0000F900FBE0F901F901895789484B58260BF
:1003B00084BD84B5816084BD85B5826085BD85B509
:1003C000816085BDEEE6F0E0808181608083E1E8B8
:1003D000F0E01082808182608083808181608083F0
:1003E000E0E8F0E0808181608083E1EBF0E08081F3
:1003F00084608083E0EBF0E0808181608083E1E9CC
:10040000F0E0808182608083808181608083E0E988
:10041000F0E0808181608083E1EAF0E080818260A9
:100420008083808181608083E0EAF0E08081816068
:100430008083E1E2F1E0808182608083808181605D
:100440008083E0E2F1E0808181608083EAE7F0E090
:1004500080818460808380818260808380818160EC
:1004600080838081806880831092C1000895CF933B
:10047000DF93482F50E0CA0188589E4FFC01349109
:100480004E5C5E4FFA018491882369F190E0880FF9
:10049000991FFC01EC51FF4FA591B491FC01E25072
:1004A000FF4FC591D491662351F42FB7F8948C91E6
:1004B000932F909589238C93888189230BC0623078
:1004C00061F42FB7F8948C91932F909589238C9396
:1004D0008881832B88832FBF06C09FB7F8948C91A7
:1004E000832B8C939FBFDF91CF910895893009F4BE
:1004F00049C08A30A0F4843051F1853040F4823014
:1005000079F1833000F5813009F063C026C087306F
:1005100079F1883098F5863009F05BC025C08D30C0
:1005200009F442C08E3028F48B30B1F18C30C0F524
:100530002DC0803109F442C0813109F445C08F30AB
:1005400009F047C037C0809180008F7703C0809149
:1005500080008F7D80938000089584B58F7702C0DE
:1005600084B58F7D84BD08958091B0008F7703C0DE
:100570008091B0008F7D8093B000089580919000AD
:100580008F7707C0809190008F7D03C0809190008D
:10059000877F8093900008958091A0008F7707C097
:1005A0008091A0008F7D03C08091A000877F809301
:1005B000A0000895809120018F7703C080912001D1
:1005C0008F7D80932001089580912001877F809303
:1005D00020010895FF920F931F93F62E482F50E0AD
:1005E000CA0182549E4FFC012491CA0188589E4F33
:1005F000FC0114914E5C5E4FFA0104910023C9F096
:10060000222319F0822F0E947602E02FF0E0EE0FF5
:10061000FF1FE250FF4FA591B4919FB7F894FF20C0
:1006200021F48C911095812302C08C91812B8C93A5
:100630009FBF1F910F91FF9008951F920F920FB6C9
:100640000F920BB60F9211242F933F934F938F93DA
:100650009F93EF93FF934091C60020916D023091DC
:100660006E022F5F3F4F2F73307080916F02909119
:1006700070022817390759F0E0916D02F0916E026F
:10068000E35DFD4F408330936E0220936D02FF9136
:10069000EF919F918F914F913F912F910F900BBEB2
:1006A0000F900FBE0F901F9018951F920F920FB6CC
:1006B0000F920BB60F9211242F933F934F938F936A
:1006C0009F93EF93FF934091CE002091F5023091DC
:1006D000F6022F5F3F4F2F7330708091F702909199
:1006E000F8022817390759F0E091F502F091F60267
:1006F000EB54FD4F40833093F6022093F502FF91B7
:10070000EF919F918F914F913F912F910F900BBE41
:100710000F900FBE0F901F9018951F920F920FB65B
:100720000F920BB60F9211242F933F934F938F93F9
:100730009F93EF93FF934091D60020917D033091DA
:100740007E032F5F3F4F2F73307080917F03909116
:1007500080032817390759F0E0917D03F0917E035B
:10076000E35CFC4F408330937E0320937D03FF9135
:10077000EF919F918F914F913F912F910F900BBED1
:100780000F900FBE0F901F9018951F920F920FB6EB
:100790000F920BB60F9211242F933F934F938F9389
:1007A0009F93EF93FF934091360120910504309180
:1007B00006042F5F3F4F2F73307080910704909194
:1007C00008042817390759F0E0910504F091060450
:1007D000EB53FC4F40833093060420930504FF91B4
:1007E000EF919F918F914F913F912F910F900BBE61
:1007F0000F900FBE0F901F9018951F920F920FB67B
:100800000F920BB60F9211242F933F938F939F93C8
:10081000EF93FF932091B1023091B2028091B30225
:100820009091B4022817390731F48091C1008F7D6F
:100830008093C10014C0E091B302F091B402EF586C
:10084000FD4F20818091B3029091B40201968F7385
:1008500090709093B4028093B3022093C600FF91EE
:10086000EF919F918F913F912F910F900BBE0F9021
:100870000FBE0F901F9018951F920F920FB60F92F8
:100880000BB60F9211242F933F938F939F93EF9367
:10089000FF932091390330913A0380913B0390916B
:1008A0003C032817390731F48091C9008F7D80936C
:1008B000C90014C0E0913B03F0913C03E750FD4FA9
:1008C000208180913B0390913C0301968F7390703F
:1008D00090933C0380933B032093CE00FF91EF91D4
:1008E0009F918F913F912F910F900BBE0F900FBE54
:1008F0000F901F9018951F920F920FB60F920BB684
:100900000F9211242F933F938F939F93EF93FF9315
:100910002091C1033091C2038091C3039091C4031D
:100920002817390731F48091D1008F7D8093D10051
:1009300014C0E091C303F091C403EF57FC4F208132
:100940008091C3039091C40301968F73907090932C
:10095000C4038093C3032093D600FF91EF919F912E
:100960008F913F912F910F900BBE0F900FBE0F9064
:100970001F9018951F920F920FB60F920BB60F9201
:1009800011242F933F938F939F93EF93FF93209185
:10099000490430914A0480914B0490914C042817EB
:1009A000390731F4809131018F7D8093310114C07A
:1009B000E0914B04F0914C04E75FFB4F2081809164
:1009C0004B0490914C0401968F73907090934C045B
:1009D00080934B0420933601FF91EF919F918F916B
:1009E0003F912F910F900BBE0F900FBE0F901F9055
:1009F0001895AF92BF92DF92EF92FF920F931F93E1
:100A0000CF93DF93EC017A018B01DD24403081EE3E
:100A1000580780E0680780E0780711F0DD24D39460
:100A200091E0A92EB12CEC89FD89DD2069F0C5018A
:100A30000E8C02C0880F991F0A94E2F7808360E051
:100A400079E08DE390E005C0108260E874E88EE103
:100A500090E0A80197010E94BE072150304040401D
:100A60005040569547953795279580E120303807B7
:100A700020F0DD2011F0DD24D6CFE889F98930831C
:100A8000EA89FB892083EE89FF89408121E030E0FB
:100A9000C9010A8C02C0880F991F0A94E2F7482BFB
:100AA0004083EE89FF894081C9010B8C02C0880F09
:100AB000991F0A94E2F7482B4083EE89FF89408111
:100AC000C9010C8C02C0880F991F0A94E2F7482BC9
:100AD0004083EE89FF8980810D8C02C0220F331F75
:100AE0000A94E2F7209528232083DF91CF911F916C
:100AF0000F91FF90EF90DF90BF90AF900895DC01D1
:100B00001C96ED91FC911D97E05CFF4F2191319176
:100B100080819181281B390B2F733070C901089592
:100B2000DC011C96ED91FC911D97E05CFF4F20814C
:100B30003181E054F040DF01AE5BBF4F8D919C915D
:100B400011972817390719F42FEF3FEF07C08D9140
:100B50009C91E80FF91F8081282F30E0C90108958A
:100B6000DC011C96ED91FC911D97E05CFF4F20810C
:100B70003181E054F040DF01AE5BBF4F8D919C911D
:100B800011972817390719F42FEF3FEF10C08D91F7
:100B90009C911197E80FF91F20818D919C911197DD
:100BA00001968F73907011969C938E9330E0C901DB
:100BB0000895FC0186859785DC01A05CBF4FFC0190
:100BC000EE5BFF4F2D913C91119780819181281709
:100BD0003907C1F70895CF93DF93EC01EE85FF85C8
:100BE000E05CFF4F20813181E054F0402F5F3F4FA8
:100BF0002F733070DF01AE5BBF4F8D919C911197C9
:100C000028173907D1F3E05CFF4F80819181E054D0
:100C1000F040E80FF91F6083EE85FF85E05CFF4F31
:100C200031832083EE89FF89208181E090E00D8C63
:100C300002C0880F991F0A94E2F7282B208381E0D5
:100C400090E0DF91CF9108951F931092500410927D
:100C50004F0428EE33E040E050E0209351043093FD
:100C60005204409353045093540467E172E070932C
:100C70004E0460934D048DE292E090935A04809369
:100C8000590481E792E090935C0480935B0485ECC7
:100C900090E090935E0480935D0484EC90E09093E8
:100CA000600480935F0480EC90E0909362048093F2
:100CB000610481EC90E0909364048093630486EC7B
:100CC00090E0909366048093650414E010936704A9
:100CD000B3E0B0936804A7E0A0936904F5E0F09353
:100CE0006A04E1E0E0936B0410926F0410926E04CA
:100CF00020937004309371044093720450937304F2
:100D000070936D0460936C0485EB92E0909379048A
:100D10008093780489EF92E090937B0480937A0427
:100D20008DEC90E090937D0480937C048CEC90E0BB
:100D300090937F0480937E0488EC90E090938104EC
:100D40008093800489EC90E09093830480938204E4
:100D50008EEC90E090938504809384041093860435
:100D6000B0938704A0938804F0938904E0938A04E5
:100D700010928E0410928D0420938F04309390046F
:100D8000409391045093920470938C0460938B046D
:100D90008DE393E0909398048093970481E893E027
:100DA00090939A048093990485ED90E090939C042D
:100DB00080939B0484ED90E090939E0480939D0427
:100DC00080ED90E09093A00480939F0481ED90E0EB
:100DD0009093A2048093A10486ED90E09093A404E4
:100DE0008093A3041093A504B093A604A093A70432
:100DF000F093A804E093A9041092AD041092AC04FF
:100E00002093AE043093AF044093B0045093B104E8
:100E10007093AB046093AA0485EC93E09093B704BD
:100E20008093B60489E094E09093B9048093B80469
:100E300085E391E09093BB048093BA0484E391E04E
:100E40009093BD048093BC0480E391E09093BF0431
:100E50008093BE0481E391E09093C1048093C00429
:100E600086E391E09093C3048093C2041093C4047A
:100E7000B093C504A093C604F093C704E093C804DC
:100E80001F910895CF92DF92EF92FF920F931F93DD
:100E9000CF93DF937C016B018A01C0E0D0E00FC0EB
:100EA000D6016D916D01D701ED91FC910190F0811A
:100EB000E02DC7011995C80FD91F01501040011529
:100EC000110571F7CE01DF91CF911F910F91FF9026
:100ED000EF90DF90CF900895DC01ED91FC910190AF
:100EE000F081E02D19950895EF92FF920F931F93D3
:100EF0008C01DC01ED91FC910190F081E02D6DE021
:100F000019957C01D801ED91FC910190F081E02DC3
:100F1000C8016AE019959C012E0D3F1DC9011F9162
:100F20000F91FF90EF900895CF93DF93DB010D9029
:100F30000020E9F71197A61BB70BEC01E881F981B6
:100F40000280F381E02DAD011995DF91CF910895D5
:100F5000EF92FF920F931F937C010E9494078C01E4
:100F6000C7010E947407080F191FC8011F910F9134
:100F7000FF90EF900895F8940C94E607A1E21A2EE2
:100F8000AA1BBB1BFD010DC0AA1FBB1FEE1FFF1F2D
:100F9000A217B307E407F50720F0A21BB30BE40B7D
:100FA000F50B661F771F881F991F1A9469F76095C4
:100FB0007095809590959B01AC01BD01CF0108957E
:100FC000EE0FFF1F0590F491E02D1994F894FFCFD8
:100FD000436F6E6E656374696F6E207365637572BF
:100FE00065640000000000EB0542077F05B0059036
:040FF00005D905001A
:00000001FF
